:100000000C9446000C9465000C9465000C946500FB
:100010000C9465000C9465000C9465000C946500CC
:100020000C9465000C9465000C9465000C946500BC
:100030000C9465000C94E3000C9465000C9465002E
:100040000C9465000C9465000C9465000C9465009C
:100050000C9465000C9465000C9465000C9465008C
:100060000C9465000C9465000C9465000C9465007C
:100070000C9465000C9465000C9465000C9465006C
:100080000C9465000C9465000C94650011241FBE4F
:10009000CFEFD0E4DEBFCDBF11E0A0E0B1E0E2E100
:1000A000F1E100E00BBF02C007900D92A035B1074F
:1000B000D9F721E0A0E5B1E001C01D92A038B20758
:1000C000E1F70E9472050C9487080C940000CF930E
:1000D000DF9300D000D0CDB7DEB769837A838B83FE
:1000E0009C8389819A81AB81BC818093000190932C
:1000F0000101A0930201B09303018091000190914E
:100100000101A0910201B0910301809351019093EC
:100110005201A0935301B093540100000F900F902F
:100120000F900F90DF91CF910895CF93DF93CDB7CC
:10013000DEB781E890E02BE0FC01208388E890E0C6
:100140002DE730E0FC01318320838FE690E022E050
:10015000FC01208384E890E0FC01118210828091F0
:10016000000190910101A0910201B09103018093DF
:10017000510190935201A0935301B09354018FE524
:1001800090E02FE530E0F90120812068FC01208318
:100190000000DF91CF910895CF93DF93CDB7DEB705
:1001A00081E890E0FC0110820000DF91CF9108957A
:1001B000CF93DF93CDB7DEB781E08093500100008D
:1001C000DF91CF9108951F920F9200905F000F92E0
:1001D000112400905B000F922F933F934F935F93F6
:1001E0006F937F938F939F93AF93BF93EF93FF93FF
:1001F000CF93DF93CDB7DEB780915101909152013B
:10020000A0915301B09154010197A109B1098093C4
:10021000510190935201A0935301B09354018091E6
:10022000510190915201A0915301B0915401892B39
:100230008A2B8B2B91F40E94D80080910001909121
:100240000101A0910201B0910301809351019093AB
:100250005201A0935301B09354010000DF91CF915C
:10026000FF91EF91BF91AF919F918F917F916F918E
:100270005F914F913F912F910F9000925B000F90F3
:1002800000925F000F901F901895CF93DF9300D0DE
:100290001F92CDB7DEB789836A834B838B81882316
:1002A00071F08A81282F30E081E090E002C0880F51
:1002B000991F2A95E2F7982F8981892B0EC08A8190
:1002C000282F30E081E090E002C0880F991F2A9526
:1002D000E2F7982F9095898189230F900F900F90C6
:1002E000DF91CF910895CF93DF9300D0CDB7DEB7E4
:1002F00089836A838A81282F30E081E090E002C000
:10030000880F991F2A95E2F7982F898189230F90EA
:100310000F90DF91CF9108950F931F93CF93DF93A9
:10032000CDB7DEB708E210E040E064E08FEF0E9456
:100330004501F8018083000086E290E0FC018081A5
:10034000809560E00E947301882311F081E3D3C09F
:1003500086E290E0FC018081809561E00E9473015B
:10036000882311F084E3C7C086E290E0FC0180811D
:10037000809562E00E947301882311F087E3BBC07F
:1003800086E290E0FC018081809563E00E94730129
:10039000882311F08AE2AFC008E210E040E065E097
:1003A0008FEF0E944501F8018083000086E290E013
:1003B000FC018081809560E00E947301882311F028
:1003C00082E399C086E290E0FC018081809561E043
:1003D0000E947301882311F085E38DC086E290E0CE
:1003E000FC018081809562E00E947301882311F0F6
:1003F00088E381C086E290E0FC018081809563E023
:100400000E947301882311F080E375C008E210E0B8
:1004100040E066E08FEF0E944501F8018083000014
:1004200086E290E0FC018081809560E00E9473018B
:10043000882311F083E35FC086E290E0FC018081B5
:10044000809561E00E947301882311F086E353C018
:1004500086E290E0FC018081809562E00E94730159
:10046000882311F089E347C086E290E0FC01808197
:10047000809563E00E947301882311F083E23BC002
:1004800008E210E040E067E08FEF0E944501F801CC
:100490008083000086E290E0FC018081809560E02E
:1004A0000E947301882311F081E425C086E290E068
:1004B000FC018081809561E00E947301882311F026
:1004C00082E419C086E290E0FC018081809562E0C0
:1004D0000E947301882311F083E40DC086E290E04E
:1004E000FC018081809563E00E947301882311F0F4
:1004F00084E401C080E0DF91CF911F910F910895B6
:10050000CF93DF93CDB7DEB72C970FB6F894DEBF4D
:100510000FBECDBF6D837E838F83988729873A87EF
:100520004B875C878D819E81AF81B88529853A850F
:100530004B855C85BC01CD010E94D106DC01CB015D
:1005400089839A83AB83BC8389819A81AB81BC8187
:10055000892B8A2B8B2B29F489859A85AB85BC85C1
:1005600011C089859A85AB85BC858D839E83AF83B9
:10057000B88789819A81AB81BC8189879A87AB874B
:10058000BC87D0CFBC01CD012C960FB6F894DEBF4E
:100590000FBECDBFDF91CF910895CF93DF9300D0F1
:1005A0001F92CDB7DEB789837B836A8389818A30C6
:1005B00031F48A819B81BC018DE00E94CD0280ECE8
:1005C00090E0FC018081882F90E080729927892B30
:1005D000B1F386EC90E02981FC01208380E090E07B
:1005E0000F900F900F90DF91CF910895CF93DF93ED
:1005F00000D0CDB7DEB79A8389830E948C018093A7
:100600007D0189819A818130910589F0823091053F
:100610001CF4892B39F04AC082309105C9F0039748
:10062000E1F144C081E090E09A83898347C08091E2
:100630007D01882321F082E090E09A838983809174
:1006400055018130B1F583E090E09A83898331C010
:1006500080917D01282F30E080915601882F90E015
:1006600001978E5E9E4FFC018081082E000C990B35
:100670002817390729F482E090E09A83898304C01F
:1006800081E090E09A83898380915501813099F4CB
:1006900083E090E09A8389830EC08091550188237E
:1006A00061F481E090E09A83898307C01A821982FD
:1006B00005C0000003C0000001C0000089819A81CC
:1006C000009709F43FC0019709F03FC080917D0178
:1006D000282F30E080915601882F90E08E5E9E4F4B
:1006E000FC018081082E000C990B2817390731F482
:1006F000809156018F5F8093560118C080917D01D3
:10070000282F30E080915601882F90E08E5E9E4F1A
:10071000FC018081082E000C990B2817390731F055
:1007200080917D01882311F010925601909156011D
:1007300080911801981741F481E08093550110923F
:10074000560102C0000001C0000089819A810F900B
:100750000F90DF91CF910895CF93DF9300D0CDB765
:10076000DEB79A83898383E290E0FC0180818095E3
:10077000807880937E0189819A818130910551F042
:100780008230910581F0892BB9F481E090E09A8361
:10079000898318C080915501813089F482E090E00E
:1007A0009A8389830CC080917E01882351F081E077
:1007B00090E09A83898305C01A82198203C00000E1
:1007C00001C0000089819A818130910519F002975A
:1007D00051F00FC01092550185E290E02091550133
:1007E000FC01208306C085E290E021E0FC0120832B
:1007F000000089819A810F900F90DF91CF91089529
:100800000F931F93CF93DF9300D000D0CDB7DEB707
:1008100069837A838B839C838091580190915901DD
:10082000A0915A01B0915B019C01AD0169817A816F
:100830008B819C810E94F306882309F477C020E015
:1008400030E0A90169817A818B819C810E94F30645
:10085000882351F481E990E021E930E0F901208119
:100860002870FC01208309C081E990E021E930E093
:10087000F90120812360FC01208328E539E344E766
:100880005FE369817A818B819C810E94F3068823D2
:1008900044F488E990E02FEF3FEFFC01318320839F
:1008A00034C020E034E244EF56E469817A818B81E0
:1008B0009C810E941508181634F488E990E0FC0128
:1008C0001182108222C008E910E020E030E040E010
:1008D00053E469817A818B819C810E941A08DC0132
:1008E000CB019C01AD0160E074E284EF9AE40E94C8
:1008F000F806DC01CB01BC01CD010E946A07DC01D6
:10090000CB010197F8019183808384E990E0FC0199
:100910001182108289819A81AB81BC8180935801B8
:1009200090935901A0935A01B0935B0100000F907E
:100930000F900F900F90DF91CF911F910F9108951D
:10094000CF93DF93CDB7DEB780E990E020E4FC01E0
:10095000208381E990E02BE0FC01208360E070E0DF
:10096000CB010E9400040000DF91CF910895CF9346
:10097000DF93CDB7DEB780E990E0FC01108281E91A
:1009800090E0FC0110820000DF91CF910895CF9399
:10099000DF9300D0CDB7DEB79A83898380E290E001
:1009A000FC0180818095807880937F0189819A8184
:1009B0008130910589F0823091051CF4892B39F042
:1009C00030C08230910589F0039719F12AC081E087
:1009D00090E09A8389832BC080917F01882321F145
:1009E00082E090E09A8389831FC08091570188300C
:1009F000E8F01092570180917F01882329F083E06D
:100A000090E09A83898312C081E090E09A83898381
:100A10000DC080917F01882321F481E090E09A83CA
:100A200089831A82198203C0000001C000008981F5
:100A30009A818130910581F0823091050CF44AC091
:100A40008230910579F0039709F045C060E070E0CD
:100A5000CB010E9400043FC060E070E0CB010E9427
:100A6000000439C080911901813099F480915701B7
:100A7000882F90E0880F991F880F991F865E9E4FE0
:100A8000FC0180819181A281B381BC01CD010E94D2
:100A9000000480911901282F30E080915701882FA0
:100AA00090E0880F991F865C9E4FFC0180819181A8
:100AB000821793074CF4809157018F5F8093570101
:100AC00081E08093190107C0809119018F5F8093A5
:100AD000190101C0000089819A810F900F90DF9168
:100AE000CF9108950F931F93CF93DF93CDB7DEB7C8
:100AF0002B970FB6F894DEBF0FBECDBF81E290E01A
:100B0000FC01108282E290E02FEFFC01208384E25E
:100B100090E02FE7FC01208385E290E020E8FC01D3
:100B2000208387E290E020EFFC01208388E290E0C0
:100B30002FE0FC01208386E0EAE4F1E0DE01169676
:100B400001900D928A95E1F783E090E09C838B837E
:100B50008FEF8D838D8180935C0182E390E0A0E034
:100B6000B0E080935D0190935E01A0935F01B0932C
:100B7000600180915D0190915E01A0915F01B09153
:100B800060018093610190936201A0936301B0932F
:100B9000640186EF92E090936601809365018D81F8
:100BA0008093670182E390E0A0E0B0E08093680169
:100BB00090936901A0936A01B0936B0180916801E1
:100BC00090916901A0916A01B0916B0180936C01D1
:100BD00090936D01A0936E01B0936F018CEA93E046
:100BE00090937101809370018D818093720188ECE4
:100BF00090E0A0E0B0E08093730190937401A09323
:100C00007501B09376018091730190917401A09168
:100C10007501B09176018093770190937801A0934C
:100C20007901B0937A0187EC94E090937C018093F2
:100C30007B0162E370E080E090E00E9467000E9428
:100C400095000E94A0041A8219829BC089819A8112
:100C5000880F991F9E012F5F3F4F820F931F0596AC
:100C6000FC0180819181FC0125813681478150857D
:100C700089819A81880F991FBE016F5F7F4F860F10
:100C8000971F0596FC0180819181FC0181819281F1
:100C9000A381B481281739074A075B0709F045C0CB
:100CA00089819A81880F991F9E012F5F3F4F820F84
:100CB000931F0596FC010081118189819A81880F1B
:100CC000991F9E012F5F3F4F820F931F0596FC01D6
:100CD00080819181FC012185328589819A81880FEB
:100CE000991FAE014F5F5F4F840F951F0596FC0162
:100CF00080819181FC018081082E000C990BF90103
:100D00000995F801808389819A81880F991F9E0136
:100D10002F5F3F4F820F931F0596FC0180819181C9
:100D2000FC01158216821782108689819A81880FAC
:100D3000991F9E012F5F3F4F820F931F0596FC0165
:100D40002081318189819A81880F991FAE014F5F7F
:100D50005F4F840F951F0596FC0180819181FC01F6
:100D600085819681A781B085C296A11DB11DF9012B
:100D700085839683A783B08789819A8101969A8318
:100D8000898329813A818B819C812817390708F44E
:100D90005DCF0000809150018823E1F31092500153
:100DA00052CFA1E21A2EAA1BBB1BFD010DC0AA1F28
:100DB000BB1FEE1FFF1FA217B307E407F50720F0C4
:100DC000A21BB30BE40BF50B661F771F881F991F3F
:100DD0001A9469F760957095809590959B01AC0188
:100DE000BD01CF0108950E94A00708F481E0089595
:100DF0000E940C070C94DB070E94D40758F00E9455
:100E0000CD0740F029F45F3F29F00C94C40751113D
:100E10000C940F080C94CA070E94EC0768F39923FE
:100E2000B1F3552391F3951B550BBB27AA276217E6
:100E30007307840738F09F5F5F4F220F331F441FF3
:100E4000AA1FA9F335D00E2E3AF0E0E832D0915027
:100E50005040E695001CCAF72BD0FE2F29D0660F14
:100E6000771F881FBB1F261737074807AB07B0E857
:100E700009F0BB0B802DBF01FF2793585F4F3AF05D
:100E80009E3F510578F00C94C4070C940F085F3F07
:100E9000E4F3983ED4F3869577956795B795F795E3
:100EA0009F5FC9F7880F911D9695879597F90895CB
:100EB000E1E0660F771F881FBB1F62177307840767
:100EC000BA0720F0621B730B840BBA0BEE1F88F776
:100ED000E09508950E9471076894B1110C940F0871
:100EE00008950E94F40788F09F5798F0B92F99272A
:100EF000B751B0F0E1F0660F771F881F991F1AF005
:100F0000BA95C9F714C0B13091F00E940E08B1E053
:100F100008950C940E08672F782F8827B85F39F052
:100F2000B93FCCF3869577956795B395D9F73EF49D
:100F300090958095709561957F4F8F4F9F4F089545
:100F4000990F0008550FAA0BE0E8FEEF16161706DA
:100F5000E807F907C0F012161306E407F50798F042
:100F6000621B730B840B950B39F40A2661F0232B5B
:100F7000242B252B21F408950A2609F4A140A695D7
:100F80008FEF811D811D089597F99F6780E870E0BC
:100F900060E008959FEF80EC089500240A941616EF
:100FA000170618060906089500240A941216130657
:100FB000140605060895092E0394000C11F48823E5
:100FC00052F0BB0F40F4BF2B11F460FF04C06F5F01
:100FD0007F4F8F4F9F4F089557FD9058440F551FD7
:100FE00059F05F3F71F04795880F97FB991F61F0AB
:100FF0009F3F79F087950895121613061406551F22
:10100000F2CF4695F1DF08C0161617061806991F8D
:10101000F1CF86957105610508940895E894BB2782
:1010200066277727CB0197F908950E94A00708F457
:101030008FEF08950E942D080C94DB070E94CD07C6
:1010400038F00E94D40720F0952311F00C94C407C7
:101050000C94CA0711240C940F080E94EC0770F33B
:10106000959FC1F3950F50E0551F629FF001729F4D
:10107000BB27F00DB11D639FAA27F00DB11DAA1F5C
:10108000649F6627B00DA11D661F829F2227B00DA9
:10109000A11D621F739FB00DA11D621F839FA00D34
:1010A000611D221F749F3327A00D611D231F849F84
:1010B000600D211D822F762F6A2F11249F575040DB
:1010C0009AF0F1F088234AF0EE0FFF1FBB1F661F56
:1010D000771F881F91505040A9F79E3F510580F01F
:1010E0000C94C4070C940F085F3FE4F3983ED4F3CC
:1010F000869577956795B795F795E7959F5FC1F7C3
:10110000FE2B880F911D9695879597F90895F89471
:02111000FFCF0F
:10111200010000000000000200000000CD020000FB
:101122000000233132333435060100D0024400D0AE
:1011320024441FD512440000C44300D002441FD5EA
:10114200124400D0244400D00244010001000100F6
:10115200030001000100010003005C01670172014C
:00000001FF
